{
  "_format": "hh-sol-artifact-1",
  "contractName": "RestockApproval",
  "sourceName": "contracts/RestockApproval.sol",
  "abi": [
    {
      "anonymous": false,
      "inputs": [
        {
          "indexed": true,
          "internalType": "uint256",
          "name": "requestId",
          "type": "uint256"
        },
        {
          "indexed": false,
          "internalType": "address",
          "name": "cfo",
          "type": "address"
        },
        {
          "indexed": false,
          "internalType": "uint256",
          "name": "timestamp",
          "type": "uint256"
        }
      ],
      "name": "CFOApproved",
      "type": "event"
    },
    {
      "anonymous": false,
      "inputs": [
        {
          "indexed": true,
          "internalType": "uint256",
          "name": "requestId",
          "type": "uint256"
        },
        {
          "indexed": false,
          "internalType": "address",
          "name": "manager",
          "type": "address"
        },
        {
          "indexed": false,
          "internalType": "uint256",
          "name": "timestamp",
          "type": "uint256"
        }
      ],
      "name": "ManagerApproved",
      "type": "event"
    },
    {
      "anonymous": false,
      "inputs": [
        {
          "indexed": true,
          "internalType": "uint256",
          "name": "requestId",
          "type": "uint256"
        },
        {
          "indexed": false,
          "internalType": "address",
          "name": "procurement",
          "type": "address"
        },
        {
          "indexed": false,
          "internalType": "uint256",
          "name": "timestamp",
          "type": "uint256"
        }
      ],
      "name": "ProcurementApproved",
      "type": "event"
    },
    {
      "anonymous": false,
      "inputs": [
        {
          "indexed": true,
          "internalType": "uint256",
          "name": "requestId",
          "type": "uint256"
        },
        {
          "indexed": false,
          "internalType": "address",
          "name": "manager",
          "type": "address"
        },
        {
          "indexed": false,
          "internalType": "address",
          "name": "procurement",
          "type": "address"
        },
        {
          "indexed": false,
          "internalType": "address",
          "name": "cfo",
          "type": "address"
        }
      ],
      "name": "RequestCreated",
      "type": "event"
    },
    {
      "anonymous": false,
      "inputs": [
        {
          "indexed": true,
          "internalType": "uint256",
          "name": "requestId",
          "type": "uint256"
        },
        {
          "indexed": false,
          "internalType": "uint256",
          "name": "timestamp",
          "type": "uint256"
        }
      ],
      "name": "RequestFinalized",
      "type": "event"
    },
    {
      "inputs": [
        {
          "internalType": "uint256",
          "name": "_requestId",
          "type": "uint256"
        }
      ],
      "name": "approveAsCFO",
      "outputs": [],
      "stateMutability": "nonpayable",
      "type": "function"
    },
    {
      "inputs": [
        {
          "internalType": "uint256",
          "name": "_requestId",
          "type": "uint256"
        }
      ],
      "name": "approveAsManager",
      "outputs": [],
      "stateMutability": "nonpayable",
      "type": "function"
    },
    {
      "inputs": [
        {
          "internalType": "uint256",
          "name": "_requestId",
          "type": "uint256"
        }
      ],
      "name": "approveAsProcurement",
      "outputs": [],
      "stateMutability": "nonpayable",
      "type": "function"
    },
    {
      "inputs": [
        {
          "internalType": "uint256",
          "name": "_requestId",
          "type": "uint256"
        },
        {
          "internalType": "address",
          "name": "_manager",
          "type": "address"
        },
        {
          "internalType": "address",
          "name": "_procurement",
          "type": "address"
        },
        {
          "internalType": "address",
          "name": "_cfo",
          "type": "address"
        }
      ],
      "name": "createRequest",
      "outputs": [],
      "stateMutability": "nonpayable",
      "type": "function"
    },
    {
      "inputs": [],
      "name": "requestCount",
      "outputs": [
        {
          "internalType": "uint256",
          "name": "",
          "type": "uint256"
        }
      ],
      "stateMutability": "view",
      "type": "function"
    },
    {
      "inputs": [
        {
          "internalType": "uint256",
          "name": "",
          "type": "uint256"
        }
      ],
      "name": "requests",
      "outputs": [
        {
          "internalType": "uint256",
          "name": "id",
          "type": "uint256"
        },
        {
          "internalType": "address",
          "name": "manager",
          "type": "address"
        },
        {
          "internalType": "address",
          "name": "procurement",
          "type": "address"
        },
        {
          "internalType": "address",
          "name": "cfo",
          "type": "address"
        },
        {
          "internalType": "bool",
          "name": "managerApproved",
          "type": "bool"
        },
        {
          "internalType": "bool",
          "name": "procurementApproved",
          "type": "bool"
        },
        {
          "internalType": "bool",
          "name": "cfoApproved",
          "type": "bool"
        },
        {
          "internalType": "bool",
          "name": "finalized",
          "type": "bool"
        },
        {
          "internalType": "uint256",
          "name": "timestamp",
          "type": "uint256"
        }
      ],
      "stateMutability": "view",
      "type": "function"
    }
  ],
  "bytecode": "0x608060405234801561001057600080fd5b506110b1806100206000396000f3fe608060405234801561001057600080fd5b50600436106100625760003560e01c80630fb14fba146100675780632b16beb91461008357806330b936fa1461009f57806343dd07ef146100bb5780635badbe4c146100d757806381d12c58146100f5575b600080fd5b610081600480360381019061007c91906109f4565b61012d565b005b61009d600480360381019061009891906109f4565b6102c9565b005b6100b960048036038101906100b49190610a7f565b61046f565b005b6100d560048036038101906100d091906109f4565b6106d6565b005b6100df6108d1565b6040516100ec9190610af5565b60405180910390f35b61010f600480360381019061010a91906109f4565b6108d7565b60405161012499989796959493929190610b3a565b60405180910390f35b60008060008381526020019081526020016000209050600081600001540361018a576040517f08c379a000000000000000000000000000000000000000000000000000000000815260040161018190610c24565b60405180910390fd5b8060030160149054906101000a900460ff16156101dc576040517f08c379a00000000000000000000000000000000000000000000000000000000081526004016101d390610c90565b60405180910390fd5b8060010160009054906101000a900473ffffffffffffffffffffffffffffffffffffffff1673ffffffffffffffffffffffffffffffffffffffff163373ffffffffffffffffffffffffffffffffffffffff161461026e576040517f08c379a000000000000000000000000000000000000000000000000000000000815260040161026590610cfc565b60405180910390fd5b60018160030160146101000a81548160ff021916908315150217905550817f021e3c68f00929c32cf86842817d215fbbef03684514f190a92b014725330cf933426040516102bd929190610d1c565b60405180910390a25050565b600080600083815260200190815260200160002090508060030160149054906101000a900460ff16610330576040517f08c379a000000000000000000000000000000000000000000000000000000000815260040161032790610d91565b60405180910390fd5b8060030160159054906101000a900460ff1615610382576040517f08c379a000000000000000000000000000000000000000000000000000000000815260040161037990610dfd565b60405180910390fd5b8060020160009054906101000a900473ffffffffffffffffffffffffffffffffffffffff1673ffffffffffffffffffffffffffffffffffffffff163373ffffffffffffffffffffffffffffffffffffffff1614610414576040517f08c379a000000000000000000000000000000000000000000000000000000000815260040161040b90610e69565b60405180910390fd5b60018160030160156101000a81548160ff021916908315150217905550817feff72eb448345f50c18000b8fe0a779943a728f190c8a8a82563b4b73f2476693342604051610463929190610d1c565b60405180910390a25050565b6040518061012001604052808581526020018473ffffffffffffffffffffffffffffffffffffffff1681526020018373ffffffffffffffffffffffffffffffffffffffff1681526020018273ffffffffffffffffffffffffffffffffffffffff168152602001600015158152602001600015158152602001600015158152602001600015158152602001428152506000808681526020019081526020016000206000820151816000015560208201518160010160006101000a81548173ffffffffffffffffffffffffffffffffffffffff021916908373ffffffffffffffffffffffffffffffffffffffff16021790555060408201518160020160006101000a81548173ffffffffffffffffffffffffffffffffffffffff021916908373ffffffffffffffffffffffffffffffffffffffff16021790555060608201518160030160006101000a81548173ffffffffffffffffffffffffffffffffffffffff021916908373ffffffffffffffffffffffffffffffffffffffff16021790555060808201518160030160146101000a81548160ff02191690831515021790555060a08201518160030160156101000a81548160ff02191690831515021790555060c08201518160030160166101000a81548160ff02191690831515021790555060e08201518160030160176101000a81548160ff02191690831515021790555061010082015181600401559050506001600081548092919061068f90610eb8565b9190505550837f7cf78f4c341785a756f206671f2e4e359f4914053c27594bd35d17d8326f48418484846040516106c893929190610f00565b60405180910390a250505050565b600080600083815260200190815260200160002090508060030160159054906101000a900460ff1661073d576040517f08c379a000000000000000000000000000000000000000000000000000000000815260040161073490610f83565b60405180910390fd5b8060030160169054906101000a900460ff161561078f576040517f08c379a000000000000000000000000000000000000000000000000000000000815260040161078690610fef565b60405180910390fd5b8060030160009054906101000a900473ffffffffffffffffffffffffffffffffffffffff1673ffffffffffffffffffffffffffffffffffffffff163373ffffffffffffffffffffffffffffffffffffffff1614610821576040517f08c379a00000000000000000000000000000000000000000000000000000000081526004016108189061105b565b60405180910390fd5b60018160030160166101000a81548160ff02191690831515021790555060018160030160176101000a81548160ff021916908315150217905550817f9a10a1837ed49f816a53d7d7e59f2a12a78f307ccd6c81b4bc189f7e47e62bdc334260405161088d929190610d1c565b60405180910390a2817f32049dd953ebfcf3c26cca1f53047ca229eb54d89c7d68bac411c76510ade8bf426040516108c59190610af5565b60405180910390a25050565b60015481565b60006020528060005260406000206000915090508060000154908060010160009054906101000a900473ffffffffffffffffffffffffffffffffffffffff16908060020160009054906101000a900473ffffffffffffffffffffffffffffffffffffffff16908060030160009054906101000a900473ffffffffffffffffffffffffffffffffffffffff16908060030160149054906101000a900460ff16908060030160159054906101000a900460ff16908060030160169054906101000a900460ff16908060030160179054906101000a900460ff16908060040154905089565b600080fd5b6000819050919050565b6109d1816109be565b81146109dc57600080fd5b50565b6000813590506109ee816109c8565b92915050565b600060208284031215610a0a57610a096109b9565b5b6000610a18848285016109df565b91505092915050565b600073ffffffffffffffffffffffffffffffffffffffff82169050919050565b6000610a4c82610a21565b9050919050565b610a5c81610a41565b8114610a6757600080fd5b50565b600081359050610a7981610a53565b92915050565b60008060008060808587031215610a9957610a986109b9565b5b6000610aa7878288016109df565b9450506020610ab887828801610a6a565b9350506040610ac987828801610a6a565b9250506060610ada87828801610a6a565b91505092959194509250565b610aef816109be565b82525050565b6000602082019050610b0a6000830184610ae6565b92915050565b610b1981610a41565b82525050565b60008115159050919050565b610b3481610b1f565b82525050565b600061012082019050610b50600083018c610ae6565b610b5d602083018b610b10565b610b6a604083018a610b10565b610b776060830189610b10565b610b846080830188610b2b565b610b9160a0830187610b2b565b610b9e60c0830186610b2b565b610bab60e0830185610b2b565b610bb9610100830184610ae6565b9a9950505050505050505050565b600082825260208201905092915050565b7f5265717565737420646f6573206e6f7420657869737400000000000000000000600082015250565b6000610c0e601683610bc7565b9150610c1982610bd8565b602082019050919050565b60006020820190508181036000830152610c3d81610c01565b9050919050565b7f416c726561647920617070726f766564206279206d616e616765720000000000600082015250565b6000610c7a601b83610bc7565b9150610c8582610c44565b602082019050919050565b60006020820190508181036000830152610ca981610c6d565b9050919050565b7f4e6f7420617574686f72697a6564206173206d616e6167657200000000000000600082015250565b6000610ce6601983610bc7565b9150610cf182610cb0565b602082019050919050565b60006020820190508181036000830152610d1581610cd9565b9050919050565b6000604082019050610d316000830185610b10565b610d3e6020830184610ae6565b9392505050565b7f4d616e61676572206d75737420617070726f7665206669727374000000000000600082015250565b6000610d7b601a83610bc7565b9150610d8682610d45565b602082019050919050565b60006020820190508181036000830152610daa81610d6e565b9050919050565b7f416c726561647920617070726f7665642062792070726f637572656d656e7400600082015250565b6000610de7601f83610bc7565b9150610df282610db1565b602082019050919050565b60006020820190508181036000830152610e1681610dda565b9050919050565b7f4e6f7420617574686f72697a65642061732070726f637572656d656e74000000600082015250565b6000610e53601d83610bc7565b9150610e5e82610e1d565b602082019050919050565b60006020820190508181036000830152610e8281610e46565b9050919050565b7f4e487b7100000000000000000000000000000000000000000000000000000000600052601160045260246000fd5b6000610ec3826109be565b91507fffffffffffffffffffffffffffffffffffffffffffffffffffffffffffffffff8203610ef557610ef4610e89565b5b600182019050919050565b6000606082019050610f156000830186610b10565b610f226020830185610b10565b610f2f6040830184610b10565b949350505050565b7f50726f637572656d656e74206d75737420617070726f76652066697273740000600082015250565b6000610f6d601e83610bc7565b9150610f7882610f37565b602082019050919050565b60006020820190508181036000830152610f9c81610f60565b9050919050565b7f416c726561647920617070726f7665642062792043464f000000000000000000600082015250565b6000610fd9601783610bc7565b9150610fe482610fa3565b602082019050919050565b6000602082019050818103600083015261100881610fcc565b9050919050565b7f4e6f7420617574686f72697a65642061732043464f0000000000000000000000600082015250565b6000611045601583610bc7565b91506110508261100f565b602082019050919050565b6000602082019050818103600083015261107481611038565b905091905056fea264697066735822122068cdce04132a93b05eabc6c85820def9b4fa28f261ef3e25c2160ccc826e25a464736f6c63430008130033",
  "linkReferences": {},
  "deployedLinkReferences": {}
}